S01800004763634170706C69636174696F6E31322E7372656328
S11300000C944A000C9467000C9467000C946700ED
S11300100C9467000C9467000C9467000C946700C0
S11300200C9467000C9467000C9467000C946700B0
S11300300C9467000C9467000C9467000C946700A0
S11300400C9467000C9467000C9467000C94670090
S11300500C946700A001A201A401A601A801AA01B1
S1130060AC01AE01B001B201B401B601B801BA01EC
S1130070BC01BE01CA01CC01CE01D001D201D40120
S1130080D601D801DA01DC01DE01E001E201E4017C
S1130090E601E80111241FBECFE5D8E0DEBFCDBFE5
S11300A010E0A0E6B0E0ECE0F8E002C005900D92AC
S11300B0A039B107D9F720E0A0E9B0E001C01D9252
S11300C0A039B207E1F70E94EC010C9404040C94EB
S11300D0000061E08CE00E94FC0261E08DE00E947F
S11300E0FC0261E08EE00E94FC0261E08FE00C946F
S11300F0FC02EF92FF920F931F93CF93DF9380E65E
S1130100E82E80E0F82ECCE0DEE260E08C2F0E9446
S1130110FC0200E010E080E00E947D03882349F0A7
S1130120F701E00FF11FD08180E00E947D0381116F
S1130130FBCF0F5F1F4F0430110569F761E08C2F6F
S11301400E94FC02CF5F84E0E80EF11CC031E9F6A6
S11301508D2FDF91CF911F910F91FF90EF90089514
S1130160CF93C82F60E089E00E94FC026C2F80E0EE
S11301700E94AD0361E088E00E94FC028FEC97E0EE
S11301800197F1F700C0000060E088E00E94FC02E3
S11301908FEC97E00197F1F700C00000CF9108952C
S11301A0CF93C82F61E089E00E94FC026C2F80E0AD
S11301B00E94AD0361E088E00E94FC028FEC97E0AE
S11301C00197F1F700C0000060E088E00E94FC02A3
S11301D08FEC97E00197F1F700C00000CF910895EC
S11301E02FE788E391E0215080409040E1F700C080
S11301F0000088E30E94B0008CE00E94B00081E01F
S11302000E94B0008FEC97E00197F1F700C0000066
S113021086E00C94B0004F925F926F927F92AF92FF
S1130220BF92CF92DF92EF92FF921F93CF93DF930F
S1130230CDB7DEB72A970FB6F894DEBF0FBECDBF99
S11302406B017C016115710581059105B1F480E3B1
S11302502A960FB6F894DEBF0FBECDBFDF91CF91C3
S11302601F91FF90EF90DF90CF90BF90AF907F9061
S11302706F905F904F900C94D00097FF0BC08DE26D
S11302800E94D000F094E094D094C094C11CD11C7E
S1130290E11CF11C10E09AE0492E512C612C712CC8
S11302A0AA24A394B12CAC0EBD1EA10EB11C17FD43
S11302B0BA94C701B601A30192010E94BD03605D17
S11302C0F501608369017A0181E0810FC114D104D1
S11302D0E104F10411F0182FE3CF1F3F69F0E1E0CE
S11302E0F0E0EC0FFD1FE10FF11D17FDFA95808181
S11302F00E94D0001150F1CF2A960FB6F894DEBFB9
S11303000FBECDBFDF91CF911F91FF90EF90DF9093
S1130310CF90BF90AF907F906F905F904F90089573
S1130320882319F0813061F10895862F90E080319F
S1130330910508F050C0FC01E65DFF4F0C94DC030E
S113034080E847C081E845C082E843C083E841C0F3
S113035084E83FC085E83DC086E83BC087E839C0F3
S113036088E837C089E835C08AE833C08BE831C0F3
S11303708CE82FC08DE82DC08EE82BC08FE829C0F3
S1130380862F90E08031910530F5FC01E65CFF4F4B
S11303900C94DC0380EC1DC081EC1BC082EC19C002
S11303A083EC17C084EC15C085EC13C086EC11C037
S11303B087EC0FC088EC0DC089EC0BC08AEC09C037
S11303C08BEC07C08CEC05C08DEC03C08EEC01C037
S11303D08FEC0C94B00008950E949A030E94F000E0
S11303E00E946900C0E00E947900682F70E080E0FC
S11303F090E00E940B016C2F81E00E9490012FE39A
S11304008DE093E0215080409040E1F700C000006F
S1130410CF5FE9CF982F969596959695877068301B
S113042009F44EC0693009F498C0673009F0E3C09C
S11304309130B1F028F0923019F1933089F1089598
S11304404AB321E030E0B90102C0660F771F8A95F4
S1130450E2F7CB01942F982B9ABB9BB3809547C0AE
S113046047B321E030E0B90102C0660F771F8A95D7
S1130470E2F7CB01942F982B97BB98B3809549C092
S113048044B321E030E0B90102C0660F771F8A95BA
S1130490E2F7CB01942F982B94BB95B380954AC077
S11304A041B321E030E0B90102C0660F771F8A959D
S11304B0E2F7CB01942F982B91BB92B380954BC05C
S11304C09130C1F028F0923031F19330A9F10895C0
S11304D04AB321E030E0B90102C0660F771F8A9564
S11304E0E2F7CB018095942F98239ABB9BB3892381
S11304F08BBB089547B321E030E0B90102C0660F19
S1130500771F8A95E2F7CB018095942F982397BBA8
S113051098B389234BC044B321E030E0B90102C051
S1130520660F771F8A95E2F7CB018095942F982365
S113053094BB95B389234CC041B321E030E0B901A9
S113054002C0660F771F8A95E2F7CB018095942F3E
S1130550982391BB92B389234DC09130B9F028F010
S1130560923031F19330B1F108954AB321E030E093
S1130570B90102C0660F771F8A95E2F7CB01962F67
S1130580909594239ABB9BB3892BB2CF47B321E0B8
S113059030E0B90102C0660F771F8A95E2F7CB01FC
S11305A0962F9095942397BB98B3892B88BB089575
S11305B044B321E030E0B90102C0660F771F8A9589
S11305C0E2F7CB01962F9095942394BB95B3892B96
S11305D085BB089541B321E030E0B90102C0660F44
S11305E0771F8A95E2F7CB01962F9095942391BBC0
S11305F092B3892B82BB0895982F969596959695DC
S113060087706130C1F5913091F028F09230D9F0C3
S1130610933029F108954BB321E030E0B90102C0D1
S1130620660F771F8A95E2F7CB01842B3AC048B353
S113063021E030E0B90102C0660F771F8A95E2F726
S1130640CB01842B3CC045B321E030E0B90102C0AA
S1130650660F771F8A95E2F7CB01842B3EC042B325
S113066021E030E0B90102C0660F771F8A95E2F7F6
S1130670CB01842B40C061113FC09130A1F028F020
S11306809230F9F0933059F108954BB321E030E002
S1130690B90102C0660F771F8A95E2F7CB018095F6
S11306A084238BBB089548B321E030E0B90102C034
S11306B0660F771F8A95E2F7CB018095842388BB68
S11306C0089545B321E030E0B90102C0660F771FF9
S11306D08A95E2F7CB018095842385BB089542B3C4
S11306E021E030E0B90102C0660F771F8A95E2F776
S11306F0CB018095842382BB0895282F277086958B
S113070086958695813049F030F0823041F083300F
S113071079F480B305C089B303C086B301C083B341
S113072090E002C0959587952A95E2F78170089527
S113073080E008950F931F93CF9300E710E0C0E08B
S1130740F80161918F018C2F0E940A02CF5FC032A1
S1130750B9F7CF911F910F910895813041F028F09E
S1130760823039F0833039F008956BBB089568BB4B
S1130770089565BB089562BB0895052E97FB1EF48A
S113078000940E94D40357FD07D00E94E20307FCA3
S113079003D04EF40C94D403509540953095219594
S11307A03F4F4F4F5F4F0895909580957095619599
S11307B07F4F8F4F9F4F0895EE0FFF1F0590F491C9
S11307C0E02D0994A1E21A2EAA1BBB1BFD010DC04A
S11307D0AA1FBB1FEE1FFF1FA217B307E407F507ED
S11307E020F0A21BB30BE40BF50B661F771F881FC9
S11307F0991F1A9469F760957095809590959B015F
S10F0800AC01BD01CF010895F894FFCFB6
S113080C3738392F3435362A3132332D63303D2B7A
S113081C0707070707070707070707070707070758
S113082C0909090907070707090909090907070736
S9030000FC
