:100000000C942A000C9434000C9434000C943400AA
:100010000C9434000C9434000C9434000C94340090
:100020000C9434000C9434000C9434000C94340080
:100030000C9434000C9434000C9434000C94340070
:100040000C9434000C9434000C9434000C94340060
:100050000C94340011241FBECFE5D8E0DEBFCDBF25
:100060000E9436000C9458000C940000DF93CF934C
:1000700000D000D000D0CDB7DEB78FE090E09E83F7
:100080008D838FE090E09C838B832D813E818B81DB
:100090009C81820F931F9A83898380E090E026964B
:1000A0000FB6F894DEBF0FBECDBFCF91DF9108959C
:0400B000F894FFCFF2
:00000001FF
