:10000000CFC000000C9421080C944E080C947B087F
:10001000E5C00000E3C00000E1C00000DFC0000058
:10002000DDC00000DBC000000C94DC0A0C946B0AFD
:100030000C94110A0C943E0A0C94E409CFC0000001
:100040000C942809CBC00000C9C00000C7C0000044
:10005000C5C00000C3C000000C94C008BFC00000B1
:10006000BDC00000BBC00000B9C00000B7C00000A8
:10007000B5C00000B3C00000B1C00000AFC00000B8
:10008000ADC00000ABC00000A9C00000B702B902BB
:10009000BB02BD02BF02C102C302C502C702C90240
:1000A000CB02CD02CF02D102D302D502D702D902B0
:1000B000DB02DD02EA02EC02EE02F002F202F402DE
:1000C000F602F802FA02FC02FE0200030203040335
:1000D000060308030A030C030E0310031D031F038A
:1000E000210323032503270329032B032D032F03B8
:1000F000310333033503370339033B033D033F0328
:10010000410343034F03510353035503570359035B
:100110005B035D035F0361036303650367036903B7
:100120006B036D036F0371037303750398039A03E5
:100130009C039E03A003A203A403A603B403B60377
:10014000B803BA03BC03BE03C003C203030513050F
:100150002305330543055305660584059605A80563
:10016000BA05CB05DC05F0050F0620063106420670
:10017000540666067C06A506B106BD06C906D50668
:10018000E106EE06080716072407320740074E0768
:100190005E077D077F078107830785078707890734
:1001A00011241FBECFEFD0E1DEBFCDBF12E0A0E033
:1001B000B1E0E2E9FEE100E00BBF02C007900D9262
:1001C000A031B107D9F722E0A0E1B2E001C01D9251
:1001D000A935B207E1F791D30C94470F11CFD5D2CF
:1001E0009093110280931002089561E08AE09AC50D
:1001F00060E08AE097C561E080E194C560E080E15D
:1002000091C561E080E08ED561E081E08BD561E051
:1002100082E088D561E083E085C5DF92EF92FF92AE
:100220000F931F93CF93DF9394E0E92E91E0F92E83
:10023000DEE2C0E060E08C2F75D500E010E084E0E5
:10024000D82ED00E8D2D4AD6811108C0F701E00FAF
:10025000F11FD0818D2D42D68823E1F30F5F1F4F10
:100260000430110561F761E08C2F5CD5CF5F84E02D
:10027000E80EF11CC430F1F68D2FDF91CF911F9164
:100280000F91FF90EF90DF900895CF93C82F60E01B
:1002900089E048D56C2F661F6627661F8FE142D51F
:1002A000C6FB662760F98EE13DD5C5FB662760F980
:1002B0008DE138D5C4FB662760F98CE133D561E068
:1002C00088E030D58FEC97E00197F1F700C000008F
:1002D00060E088E027D58FEC97E00197F1F700C048
:1002E0000000C3FB662760F98FE11CD5C2FB6627BF
:1002F00060F98EE117D5C1FB662760F98DE112D553
:100300006C2F61708CE10ED561E088E00BD58FEC2D
:1003100097E00197F1F700C0000060E088E002D5A7
:100320008FEC97E00197F1F700C00000CF9108959E
:10033000CF93C82F61E089E0F5D46C2F661F662744
:10034000661F8FE1EFD4C6FB662760F98EE1EAD421
:10035000C5FB662760F98DE1E5D4C4FB662760F92B
:100360008CE1E0D461E088E0DDD48FEC97E0019788
:10037000F1F700C0000060E088E0D4D48FEC97E093
:100380000197F1F700C00000C3FB662760F98FE119
:10039000C9D4C2FB662760F98EE1C4D4C1FB6627CD
:1003A00060F98DE1BFD46C2F61708CE1BBD461E04A
:1003B00088E0B8D48FEC97E00197F1F700C0000017
:1003C00060E088E0AFD48FEC97E00197F1F700C0D0
:1003D0000000CF9108952FE788E391E021508040FD
:1003E0009040E1F700C0000082E04FDF88E24DDF7F
:1003F0008CE04BDF81E049DF8FEC97E00197F1F76C
:1004000000C0000086E041CF81E03FDF8FEC97E045
:100410000197F1F700C0000008954F925F926F922C
:100420007F92AF92BF92CF92DF92EF92FF921F9393
:10043000CF93DF93CDB7DEB72A970FB6F894DEBF20
:100440000FBECDBF6B017C01611571058105910562
:10045000A9F480E32A960FB6F894DEBF0FBECDBF95
:10046000DF91CF911F91FF90EF90DF90CF90BF90E1
:10047000AF907F906F905F904F905ACF97FF0AC0D8
:100480008DE256DFF094E094D094C094C11CD11C4E
:10049000E11CF11C10E09AE0492E512C612C712CCA
:1004A000AA24A394B12CAC0EBD1EA10EB11C17FD45
:1004B000BA94C701B601A30192010E94090F605DC1
:1004C000F501608369017A0181E0810FC114D104D3
:1004D000E104F10411F0182FE3CF1F3F61F0E1E0D8
:1004E000F0E0EC0FFD1FE10FF11D17FDFA95808183
:1004F0001FDF1150F2CF2A960FB6F894DEBF0FBE61
:10050000CDBFDF91CF911F91FF90EF90DF90CF9003
:10051000BF90AF907F906F905F904F90089508CFFD
:100520000F931F93CF938C01C0E0F801EC0FF11DE6
:100530008081882319F0FCDECF5FF7CFCF911F9128
:100540000F9108958130D9F138F0823009F46AC0F2
:10055000833009F49AC00895862F90E08431910584
:1005600008F0C5C0FC01EA5BFF4F0C94250F80E842
:10057000BDC081E8BBC082E8B9C083E8B7C084E8E9
:10058000B5C085E8B3C086E8B1C087E8AFC088E8E9
:10059000ADC089E8ABC08AE8A9C08BE8A7C08CE8E9
:1005A000A5C08DE8A3C08EE8A1C08FE89FC080E9F8
:1005B0009DC081E99BC082E999C083E997C0862FDD
:1005C00090E08431910508F092C0FC01E65AFF4F9B
:1005D0000C94250F80EC8AC081EC88C082EC86C028
:1005E00083EC84C084EC82C085EC80C086EC7EC045
:1005F00087EC7CC088EC7AC089EC78C08AEC76C045
:100600008BEC74C08CEC72C08DEC70C08EEC6EC044
:100610008FEC6CC080ED6AC081ED68C082ED66C071
:1006200083ED64C0862F90E08431910508F05FC0AF
:10063000FC01E259FF4F0C94250F84E957C085E96E
:1006400055C086E953C087E951C088E94FC089E9A0
:100650004DC08AE94BC08BE949C08CE947C08DE9A0
:1006600045C08EE943C08FE941C080EA3FC081EABE
:100670003DC082EA3BC083EA39C084EA37C085EADC
:1006800035C086EA33C087EA31C0862F90E08431D6
:10069000910568F5FC01EE57FF4F0C94250F84ED92
:1006A00025C085ED23C086ED21C087ED1FC088EDF4
:1006B0001DC089ED1BC08AED19C08BED17C08CEDF4
:1006C00015C08DED13C08EED11C08FED0FC080EE03
:1006D0000DC081EE0BC082EE09C083EE07C084EE30
:1006E00005C085EE03C086EE01C087EECECD08952D
:1006F0000F931F93CF93DF93D82F162F042FC0E0B3
:10070000C01721F080E214DECF5FFACF612F8D2F6A
:10071000DF91CF911F910F9115CF90E0FC013197A0
:10072000E830F105A8F4EA56FF4F61E00C94250F7C
:1007300085E10DC084E10BC086E109C088E207C0F5
:1007400089E205C08DE003C08EE001C08FE0EAC2FF
:10075000089590E0FC013197E830F105A8F4E256E5
:10076000FF4F60E00C94250F85E10DC084E10BC0C4
:1007700086E109C088E207C089E205C08DE003C0B8
:100780008EE001C08FE0CEC2089581E013C188E2FF
:10079000A5D391E0811101C090E0892F0895CF92F7
:1007A000DF92EF92FF926B017C0162E083E07DD5E6
:1007B00082E0B7D58FE19EE497BD86BDA8EEB3E099
:1007C000A70196010E943D0F24EB30E040E050E08D
:1007D0000E94E70E29513C4F3BBD2ABDFF90EF9090
:1007E000DF90CF90089562E083E05FD580E099D5F7
:1007F00080E0B2D587EE93E097BD86BD89E394E0B3
:10080000D9D5D4D580911402811105C060E080E271
:1008100089D261E023C080911402813041F460E00C
:1008200080E280D260E089E17DD261E01AC08091EF
:100830001402823059F460E080E274D260E089E111
:1008400071D260E08AE16ED261E00EC08091140244
:10085000833071F461E080E265D260E089E162D2C8
:1008600060E08AE15FD260E08BE15CD281E00895D4
:100870000895809155028130D9F4809112029091AF
:10088000130201969093130280931202019781F450
:10089000809114028F5F809314028091140284303F
:1008A00011F41092140210921302109212029BCFB4
:1008B000089560E083E0F9C48091150281110AC0B7
:1008C00086B597B5909319028093180281E05FD5A1
:1008D00081E00BC080911502813049F486B597B54F
:1008E000909317028093160282E080931502089578
:1008F0008CE594E064D556C5FBCF69D7C1E0C093C1
:1009000058020E947F0DE1D7109258023EDF90936B
:100910001C0280931B023BDF80931A02C1D7809197
:100920001B0290911C02843F914030F480911A0286
:10093000811102C00E94CA0D80911B0290911C027D
:10094000853F21E0920768F080911A02811102C070
:100950000E94E10D80911A02813089F60E948B0E6F
:10096000CECF823C914058F60E94B50EC8CF96B1CA
:10097000987F96B996B16770692B66B9813041F05E
:1009800028F0823039F43E9A3F9A04C03E9801C064
:100990003E9A3F983D98379A089597B1907E97B9BF
:1009A00097B18F71982B97B9369A3699FECF84B14B
:1009B00095B10895F2DF9C01A8E8B3E10E942E0FE3
:1009C000DC01CB012AE0B695A795979587952A95E6
:1009D000D1F70895E82FE695E695E695877068309B
:1009E00009F487C0693009F40FC1673009F099C173
:1009F0004E2F50E04730510508F093C1FA01EA55F7
:100A0000FF4F0C94250F4AB321E030E0B90102C03A
:100A1000660F771F8A95E2F7CB01942F982B9ABB2C
:100A20009BB3809580C047B321E030E0B90102C09C
:100A3000660F771F8A95E2F7CB01942F982B97BB0F
:100A400098B3809582C044B321E030E0B90102C080
:100A5000660F771F8A95E2F7CB01942F982B94BBF2
:100A600095B3809584C041B321E030E0B90102C064
:100A7000660F771F8A95E2F7CB01942F982B91BBD5
:100A800092B3809586C042B121E030E0B90102C046
:100A9000660F771F8A95E2F7CB01942F982B92B9B6
:100AA00093B1809587C04091610021E030E0B901A9
:100AB00002C0660F771F8A95E2F7CB01942F982B1F
:100AC0009093610090916200809588C0409164008D
:100AD00021E030E0B90102C0660F771F8A95E2F786
:100AE000CB01942F982B9093640090916500809592
:100AF00089C04E2F50E04730510508F012C1FA016D
:100B0000E355FF4F0C94250F4AB321E030E0B901C3
:100B100002C0660F771F8A95E2F7CB018095942F6C
:100B200098239ABB9BB389238BBB089547B321E0DD
:100B300030E0B90102C0660F771F8A95E2F7CB015A
:100B40008095942F982397BB98B3892388BB0895E9
:100B500044B321E030E0B90102C0660F771F8A95E7
:100B6000E2F7CB018095942F982394BB95B389230A
:100B700085BB089541B321E030E0B90102C0660FA2
:100B8000771F8A95E2F7CB018095942F982391BB2C
:100B900092B3892387C042B121E030E0B90102C09D
:100BA000660F771F8A95E2F7CB018095942F9823E3
:100BB00092B993B1892388C04091610021E030E06F
:100BC000B90102C0660F771F8A95E2F7CB018095C5
:100BD000942F98239093610090916200892389C09B
:100BE0004091640021E030E0B90102C0660F771F38
:100BF0008A95E2F7CB018095942F98239093640017
:100C00009091650089238BC04E2F50E047305105ED
:100C100008F087C0FA01EC54FF4F0C94250F4AB33B
:100C200021E030E0B90102C0660F771F8A95E2F734
:100C3000CB01962F909594239ABB9BB3892B74CFAD
:100C400047B321E030E0B90102C0660F771F8A95F3
:100C5000E2F7CB01962F9095942397BB98B3892BFD
:100C600075CF44B321E030E0B90102C0660F771FB1
:100C70008A95E2F7CB01962F9095942394BB95B378
:100C8000892B76CF41B321E030E0B90102C0660F75
:100C9000771F8A95E2F7CB01962F9095942391BB0D
:100CA00092B3892B82BB089542B121E030E0B901B3
:100CB00002C0660F771F8A95E2F7CB01962F9095B9
:100CC000942392B993B1892B83B90895409161001F
:100CD00021E030E0B90102C0660F771F8A95E2F784
:100CE000CB01962F90959423909361009091620090
:100CF000892B8093620008954091640021E030E0E8
:100D0000B90102C0660F771F8A95E2F7CB01962FD3
:100D1000909594239093640090916500892B809323
:100D200065000895E82FE695E695E69587706130B1
:100D300009F061C04E2F50E04730510508F0CDC09A
:100D4000FA01E554FF4F0C94250F4BB321E030E03E
:100D5000B90102C0660F771F8A95E2F7CB01842B99
:100D600063C048B321E030E0B90102C0660F771FCD
:100D70008A95E2F7CB01842B65C045B321E030E0D2
:100D8000B90102C0660F771F8A95E2F7CB01842B69
:100D900067C042B321E030E0B90102C0660F771F9F
:100DA0008A95E2F7CB01842B69C043B121E030E0A2
:100DB000B90102C0660F771F8A95E2F7CB01842B39
:100DC0006BC04091620021E030E0B90102C0660FC3
:100DD000771F8A95E2F7CB01842B6DC040916500A7
:100DE00021E030E0B90102C0660F771F8A95E2F773
:100DF000CB01842B70C0611170C04E2F50E0473082
:100E0000510508F06AC0FA01EE53FF4F0C94250F0C
:100E10004BB321E030E0B90102C0660F771F8A951D
:100E2000E2F7CB01809584238BBB089548B321E082
:100E300030E0B90102C0660F771F8A95E2F7CB0157
:100E40008095842388BB089545B321E030E0B90143
:100E500002C0660F771F8A95E2F7CB018095842345
:100E600085BB089542B321E030E0B90102C0660FAE
:100E7000771F8A95E2F7CB018095842382BB089582
:100E800043B121E030E0B90102C0660F771F8A95B7
:100E9000E2F7CB018095842383B9089540916200E5
:100EA00021E030E0B90102C0660F771F8A95E2F7B2
:100EB000CB01809584238093620008954091650062
:100EC00021E030E0B90102C0660F771F8A95E2F792
:100ED000CB0180958423809365000895282F277087
:100EE000E82FE695E695E6958E2F90E08730910500
:100EF000D0F4FC01E753FF4FA8C789B30CC086B3F9
:100F00000AC083B308C080B306C081B104C080B1F9
:100F100002C08091630090E002C0959587952A9564
:100F2000E2F78170089580E008950F931F93CF93A7
:100F300004E111E0C0E0F80161918F018C2F4ADDDE
:100F4000CF5FC833C1F7CF911F910F9108958130C2
:100F500039F018F0823039F0089589B7816005C002
:100F600089B7826002C089B7846089BF08958130E3
:100F700031F118F08230C1F10895613051F028F05C
:100F8000623081F0633091F0089580916A008E7F25
:100F900003C080916A00816080936A0080916A003A
:100FA0008D7F33C080916A008E7F03C080916A007C
:100FB000816080936A0080916A00826026C06130FF
:100FC00051F028F06230A9F06330B9F008958091B3
:100FD0006A008B7F03C080916A00846080936A00FE
:100FE00080916A00877F11C0623019F0633029F068
:100FF0000FC080916A008B7F03C080916A0084607B
:1010000080936A0080916A00886080936A000895E6
:1010100084B78F7B84BF0895813049F018F0823007
:1010200059F00895709322026093210208957093FD
:10103000200260931F02089570931E0260931D02A8
:1010400008951F920F920FB60F9211240BB60F92B4
:101050002F933F934F935F936F937F938F939F93C0
:10106000AF93BF93EF93FF93E0912102F09122029F
:10107000309709F00995FF91EF91BF91AF919F9142
:101080008F917F916F915F914F913F912F910F9031
:101090000BBE0F900FBE0F901F9018951F920F92CE
:1010A0000FB60F9211240BB60F922F933F934F93CD
:1010B0005F936F937F938F939F93AF93BF93EF93C0
:1010C000FF93E0911F02F0912002309709F00995FB
:1010D000FF91EF91BF91AF919F918F917F916F9110
:1010E0005F914F913F912F910F900BBE0F900FBECC
:1010F0000F901F9018951F920F920FB60F92112408
:101100000BB60F922F933F934F935F936F937F9301
:101110008F939F93AF93BF93EF93FF93E0911D0243
:10112000F0911E02309709F00995FF91EF91BF9160
:10113000AF919F918F917F916F915F914F913F916F
:101140002F910F900BBE0F900FBE0F901F90189510
:10115000E199FECF9FBB8EBB6DBBE29AE19A0895E9
:10116000E199FECF9FBB8EBBE09A8DB30895E39AC1
:101170000895E3980895909324028093230208959C
:101180001F920F920FB60F9211240BB60F922F934E
:101190003F934F935F936F937F938F939F93AF93FF
:1011A000BF93EF93FF93E0912302F09124023097D5
:1011B00009F00995FF91EF91BF91AF919F918F91A8
:1011C0007F916F915F914F913F912F910F900BBE47
:1011D0000F900FBE0F901F901895813059F038F086
:1011E000823071F0833091F483B780640BC083B791
:1011F0008F7B02C083B7806483BF83B7877F05C0BE
:1012000083B78F7B83BF83B7886083BF83B7887FB3
:1012100083BF83B7682B63BF0895813049F028F0FE
:10122000823061F0833069F0089583B78F7E02C009
:1012300083B7806183BF83B78F7D08C083B78F7EFC
:1012400002C083B7806183BF83B7806283BF089584
:101250001F920F920FB60F9211240BB60F922F937D
:101260003F934F935F936F937F938F939F93AF932E
:10127000BF93EF93FF93E0912502F0912602309700
:1012800009F00995FF91EF91BF91AF919F918F91D7
:101290007F916F915F914F913F912F910F900BBE76
:1012A0000F900FBE0F901F9018958230D9F050F418
:1012B000882379F0813071F58FB58E7F8FBD8FB522
:1012C0008D7F21C08330D1F0843021F58FB58160CE
:1012D00017C08FB58E7F8FBD8FB58D7F8FBD8EB5BB
:1012E000877F08C08FB58E7F8FBD8FB58D7F8FBDF7
:1012F0008EB588608EBD8EB58F7E0BC08FB58E7F0C
:101300008FBD8FB582608FBD8EB588608EBD8EB566
:1013100080618EBD8EB5887F8EBD8EB5682B6EBD0B
:101320000895813049F028F0823061F0833069F00F
:1013300008958FB58F7B02C08FB580648FBD8FB548
:101340008F7708C08FB58F7B02C08FB580648FBD4B
:101350008FB580688FBD0895813049F028F08230C4
:1013600061F0833069F008958FB58F7E02C08FB52C
:1013700080618FBD8FB58F7D08C08FB58F7E02C015
:101380008FB580618FBD8FB580628FBD089581114B
:1013900003C08EB5806404C0813019F48EB58F7B94
:1013A0008EBD089587B7806287BF089587B7846030
:1013B00087BF08959093300280932F0208959093F1
:1013C0002A028093290208951F920F920FB60F925E
:1013D00011240BB60F922F933F934F935F936F930C
:1013E0007F938F939F93AF93BF93EF93FF93E0917E
:1013F0002F02F0913002309709F00995FF91EF919B
:10140000BF91AF919F918F917F916F915F914F911C
:101410003F912F910F900BBE0F900FBE0F901F901A
:1014200018951F920F920FB60F9211240BB60F92C0
:101430002F933F934F935F936F937F938F939F93DC
:10144000AF93BF93EF93FF93E0912D02F0912E02A3
:10145000309709F00995FF91EF91BF91AF919F915E
:101460008F917F916F915F914F913F912F910F904D
:101470000BBE0F900FBE0F901F9018951F920F92EA
:101480000FB60F9211240BB60F922F933F934F93E9
:101490005F936F937F938F939F93AF93BF93EF93DC
:1014A000FF93E0912B02F0912C02309709F00995FF
:1014B000FF91EF91BF91AF919F918F917F916F912C
:1014C0005F914F913F912F910F900BBE0F900FBEE8
:1014D0000F901F9018951F920F920FB60F92112424
:1014E0000BB60F922F933F934F935F936F937F931E
:1014F0008F939F93AF93BF93EF93FF93E091290254
:10150000F0912A02309709F00995FF91EF91BF9170
:10151000AF919F918F917F916F915F914F913F918B
:101520002F910F900BBE0F900FBE0F901F9018952C
:10153000813059F038F0823071F0833091F485B504
:1015400080640BC085B58F7B02C085B5806485BD86
:1015500085B5877F05C085B58F7B85BD85B58860DE
:1015600085BD85B5887F85BD85B5682B65BD08952A
:10157000813049F028F0823061F0833069F00895BD
:1015800085B58F7E02C085B5806185BD85B58F7DAF
:1015900008C085B58F7E02C085B5806185BD85B5E3
:1015A000806285BD089587B7806487BF0895909352
:1015B00028028093270208951F920F920FB60F9270
:1015C00011240BB60F922F933F934F935F936F931A
:1015D0007F938F939F93AF93BF93EF93FF93E0918C
:1015E0002702F0912802309709F00995FF91EF91B9
:1015F000BF91AF919F918F917F916F915F914F912B
:101600003F912F910F900BBE0F900FBE0F901F9028
:10161000189580914C0290914D02892BD9F48091BC
:10162000460290914702692F70E081E090E090DDE2
:1016300081E090E090934D0280934C026AE00E941A
:10164000A202609146027091470280E090E00E9401
:101650000D0207C080914C0290914D02019709F450
:1016600088DD80914A0290914B02892B71F481E0D0
:1016700090E076DD909349028093480281E090E00B
:1016800090934D0280934C0201C073DD809135022E
:101690008F5F8093350208958091330290913402D8
:1016A000883E934091F480913A02813071F4109217
:1016B000430265E083E00E94A2028CE491E00E9474
:1016C00090020E94040210923A028091330290919B
:1016D0003402019690933402809333028091310258
:1016E000909132028838934161F4809139028130BF
:1016F00041F4109232021092310280933C02109217
:101700003902809131029091320201969093320217
:101710008093310280911B0290911C026AEF70E06D
:1017200042D386E4869F9001879F300D11248091DB
:101730003602909137022817390779F480913802E0
:10174000813059F4109237021092360280913B0298
:10175000809580933B0210923802809136029091DE
:101760003702019690933702809336020895809154
:10177000580281112BC06AE570E080E090E00FD83C
:1017800065E082E00E94A20286E591E00E9490025C
:101790000E94F5008FE39CE90197F1F700C000007B
:1017A0000E94F8008FE39CE90197F1F700C0000068
:1017B00065E082E00E94A20281E691E00E94900230
:1017C00064EB70E080E090E00C94CF03089586EA2B
:1017D00097E090934F0280934E0210924D02109228
:1017E0004C0210924B0210924A0210924302109245
:1017F000400210923F0299DB0E94EB010E9401011E
:1018000066E081E0B4D80E94EF0062E083E0E5DCAE
:1018100083E003DD62E083E048DD80E082DD80E09C
:101820009BDD62E080E084DE80E0A2DE65D8BBDE86
:1018300012BE789480914E0290914F029093420292
:101840008093410280E090E08BDC90934202809391
:10185000410289E09BE08FDC10924B0210924A0219
:1018600083E090E090934D0280934C0280DC809165
:10187000480290914902982F882720914102309187
:101880004202822B932B909342028093410280E08C
:101890005EDB62E080E06BDB67EB7BE080E0BCCB93
:1018A00082E07BD89093540280935302969587955B
:1018B0009695879581BF8091530290915402833F02
:1018C000934010F08FEF81BF0895FF920F931F9305
:1018D000CF93DF9315E0C1E0D0E00AE060E082E062
:1018E0000E94A202609141027091420280E090E069
:1018F0000E940D0260E083E00E94A2026091440217
:101900007091450280E090E00E940D0280914302B8
:10191000811104C00E940D01809350022091500259
:101920002E3209F4DFC0809143028111DBC080EDCB
:10193000820F8A30E8F44091440250914502049F9E
:10194000C001059F900D1124820F911DC0979093A7
:101950004502809344026091010181E00E94A2024D
:101960008AE20E948F02809101018F5F80930101C2
:1019700080915002833691F4D0933E02C0933D0291
:101980000E94040260E080E00E94A20286E791E0EB
:101990000E949002109245021092440280915002DF
:1019A0008D3309F09FC080913F02909140020097D3
:1019B00009F051C00E9404021093010120914402D9
:1019C00030914502809141029091420228173907D7
:1019D00099F460E080E00E94A20289E891E00E9410
:1019E0009002109250021092450210924402D0933D
:1019F0004002C0933F0276C0FF24F394F0923A0273
:101A0000109245021092440210925002109240022D
:101A100010923F0262E080E08BDD8CE49BE0C7DD4A
:101A2000C2DDF092430260E080E00E94A2028CE9F5
:101A300091E00E94900260E081E00E94A20287EAA9
:101A400091E00E9490022FEF87EA91E621508040BA
:101A50009040E1F73FC0019709F044C010930101A5
:101A60000E94040260E080E00E94A20288EB91E004
:101A70000E94900260E081E00E94A20285EC91E069
:101A80000E949002809144029091450290934702F7
:101A900080934602809144029091450290934202C5
:101AA000809341026091460270914702772780E05F
:101AB00090E04EDB10924D0210924C0258DB1092D7
:101AC000400210923F022FEF83ED90E321508040BF
:101AD0009040E1F700C000000E94040210923E0214
:101AE00010923D0280913D0290913E02019709F4CF
:101AF000F5CEDF91CF911F910F91FF900895CF9375
:101B0000DF9380913D0290913E02892B09F03FC006
:101B10008CE49BE04CDD47DD81E0809339028091CD
:101B20003C028130A1F5F8940E94C50390931C02F9
:101B300080931B0260E080E00E94A2028EEC91E0A4
:101B40000E94900280911B0290911C02CAE0D0E09A
:101B5000BE0129D180E090E00E940D028EE20E9439
:101B60008F0280911B0290911C02BE011CD1BC010E
:101B700080E090E00E940D0283E40E948F0243E027
:101B800060E080E00E94780310923C027894DF913C
:101B9000CF91089581E00E948D0382E00E94A90305
:101BA00083E00E94A9030E9459040E94F8000E9449
:101BB000FB0060E083E00E94A20284ED91E00C94BF
:101BC0009002CF93DF9381E08093550280930001D0
:101BD000809141029091420290930301809302010F
:101BE0000E940402DAE0C5E080910001882309F434
:101BF0008DC00E940D018093500290ED980F9A3095
:101C0000F8F44091510250915202D49F9001D59F17
:101C1000300D112420533109A901480F511D509353
:101C20005202409351026091010181E00E94A202A0
:101C30008AE20E948F02809101018F5F80930101EF
:101C4000F89460E080E00E94A20288ED91E00E949A
:101C5000900260E081E00E94A20289EE91E00E9481
:101C60009002789483E00E948D0381E00E94A90392
:101C700082E00E94A9030E94F3030E94F5000E94E3
:101C8000FB00809150028D3309F0AECF20915102BC
:101C90003091520280910201909103012817390777
:101CA000D1F40E9404028FEE91E00E9490025FEF57
:101CB00089E698E1515080409040E1F700C0000073
:101CC0000E9404021092520210925102C09301012C
:101CD0001092000189CF0E9404028CEF91E00E94D3
:101CE00090022FEF49E658E1215040405040E1F783
:101CF00000C000000E940402109252021092510291
:101D0000C093010181E0809300016ECF10925502D3
:101D1000DF91CF91089581E08093380266E00E94C0
:101D2000A202F89487E092E00E949002789443E047
:101D300060E080E00E94780382E00E948D0381E0F1
:101D40000E94A90383E00E94A9030E9459040E94F3
:101D5000F8008CE49BE02BDC26DC80913B028111B7
:101D600002C00C94FE000C94FB0066E081E00E942F
:101D7000A202F8948BE092E00E949002789443E0F3
:101D800060E080E00E94780381E00E948D0382E0A1
:101D90000E94A90383E00E94A9030E9459040E94A3
:101DA000F8000C94FE00AA1BBB1B51E107C0AA1F40
:101DB000BB1FA617B70710F0A61BB70B881F991FEC
:101DC0005A95A9F780959095BC01CD010895A1E29F
:101DD0001A2EAA1BBB1BFD010DC0AA1FBB1FEE1FA5
:101DE000FF1FA217B307E407F50720F0A21BB30BF0
:101DF000E40BF50B661F771F881F991F1A9469F76C
:101E000060957095809590959B01AC01BD01CF01C7
:101E10000895052E97FB16F400940FD057FD05D0BA
:101E2000D6DF07FC02D046F408C0509540953095A7
:101E300021953F4F4F4F5F4F089590958095709536
:101E400061957F4F8F4F9F4F0895EE0FFF1F002426
:101E5000001C0BBE0790F691E02D0994A29FB001E3
:101E6000B39FC001A39F700D811D1124911DB29FCE
:101E7000700D811D1124911D0895F0DFA59F900D17
:101E8000B49F900DA49F800D911D11240895F89486
:021E9000FFCF82
:101E92000105A1073132332F3435362A3738392D2F
:101EA20063303D2B070707070909090907070707D9
:101EB20007070707070909090707070709070707A8
:101EC200070707070707070707070707080808089C
:101ED20007070707070707070707070754696D651D
:101EE2002050617373004944205645524649454487
:101EF2000020202020202020202020202020202000
:101F0200202020202000504C5A20656E74657220DB
:101F12006F6C64207061737300504C5A20656E744C
:101F22006572206E657720706173730070617373E0
:101F32002077726F6E6700504C5A656E74657277C7
:101F42006169743173656300506173732055706405
:101F520061746564004E45572050617373005445A7
:101F62004D503A0061616100504C5A20454E544533
:101F7200522050415353202F00464952453A0043C4
:101F82004F525245435420504153530057524F4EE3
:101F920047205041535300484F540046494E450094
:00000001FF
